S015000046696E616C5F50726F6A6563742E73726563EF
S11300000C9434000C9451000C9451000C94510045
S11300100C9451000C9451000C9451000C94510018
S11300200C9451000C94ED050C9451000C94510067
S11300300C9451000C947B050C9451000C945100C9
S11300400C94B5020C9451000C947A060C94A806F6
S11300500C9451000C9451000C9451000C945100D8
S11300600C9451000C94510011241FBECFEFD8E022
S1130070DEBFCDBF12E0A0E0B1E0E2E2FEE002C0EC
S113008005900D92AC39B107D9F723E0ACE9B2E0A1
S113009001C01D92AB32B207E1F70E9448020C94F2
S11300A00F070C940000FC01408121E030E002C005
S11300B0220F331F6A95E2F7242B20830895FC0155
S11300C0808121E030E002C0220F331F6A95E2F7FD
S11300D0922F90958923808380818181282B21838D
S11300E00895FC01908121E030E002C0220F331F0B
S11300F06A95E2F72095292320830895FC01408125
S113010021E030E002C0220F331F6A95E2F7242B6E
S113011020830895FC01408121E030E002C0220FD9
S1130120331F6A95E2F7242720830895FC01808118
S113013090E002C0959587956A95E2F7F1E08F27E4
S11301408170089560E087E290E00E94530060E0CF
S113015088E290E00E947E0061E087E290E00E94E5
S1130160530061E088E290E00E947E0062E087E252
S113017090E00E94530062E088E290E00E947E00DA
S113018063E087E290E00E94530063E088E290E03D
S11301900E947E0063E08AE290E00E945F0065E0D6
S11301A087E290E00E945F0064E087E290E00E94B2
S11301B05F0008951F93CF93DF93C0E01CE0C1114B
S11301C00BC063E088E290E00E947E0060E088E279
S11301D090E00E947100B2C0C13059F460E088E23E
S11301E090E00E947E0061E088E290E00E9471004D
S11301F0A5C0C23059F461E088E290E00E947E001C
S113020062E088E290E00E94710098C0C33009F077
S113021095C062E088E290E00E947E0063E088E29C
S113022090E00E9471008AC063E089E290E00E943D
S11302309600813029F5C11107C060E088E290E0A2
S11302400E947E0011E07CC0C13039F461E088E294
S113025090E00E947E0014E073C0C23039F462E082
S113026088E290E00E947E0017E06AC0C33009F083
S11302705DC063E088E290E00E947E001AE060C006
S113028065E086E290E00E949600813021F5C1117C
S113029007C060E088E290E00E947E0012E050C057
S11302A0C13039F461E088E290E00E947E0015E0FC
S11302B047C0C23039F462E088E290E00E947E00D8
S11302C018E03EC0C33091F563E088E290E00E94FC
S11302D07E0010E035C064E086E290E00E94960063
S11302E0813021F5C11107C060E088E290E00E94EE
S11302F07E0013E025C0C13039F461E088E290E06B
S11303000E947E0016E01CC0C23039F462E088E22C
S113031090E00E947E0019E013C0C33039F463E01A
S113032088E290E00E947E001BE00AC0D15009F0F0
S11303307BCFCF5FC43008F442CF02C0D3E074CF88
S1130340812FDF91CF911F910895299A85E08A9595
S1130350F1F7000029980895CF93C82F662311F070
S1130360289A01C02898549A559A569A579A5F9891
S11303705E985D985C98CC230CF45F9AC6FD5E9AF7
S1130380C5FD5D9AC4FD5C9A0E94A5015F985E98C4
S11303905D985C98C3FD5F9AC2FD5E9AC1FD5D9A4B
S11303A0C0FD5C9A0E94A5015C9A5D9A5E9A5F9A70
S11303B087EB9BE00197F1F700C00000CF9108950F
S11303C060E00E94AC010895611104C080580E944D
S11303D0E001089580540E94E001089581E00E94A4
S11303E0E001089561E00E94AC010895CF93DF938A
S11303F0EC012196FC018081882329F00E94F201FE
S113040089918111FBCFDF91CF910895CF93C82FAC
S1130410209A559A219A549A559A569A579A8FEF38
S113042099EF0197F1F700C000005D9A5C9A0E9471
S1130430A5018FE19EE40197F1F700C000000E943E
S1130440A5018FEF90E00197F1F700C000000E9432
S1130450A5018FEF90E00197F1F700C000005C98D0
S11304600E94A5018FEF90E00197F1F700C0000012
S113047088E20E94E00188E00E94E0010E94EE010F
S113048086E00E94E0018C2F0E94E001CF91089544
S113049064E084E290E00E94530064E085E290E02E
S11304A00E94710063E084E290E00E94530063E0E4
S11304B085E290E00E94710065E084E290E00E9491
S11304C0530065E085E290E00E947E0062E084E2F1
S11304D090E00E94530062E085E290E00E94710087
S11304E00E94A2008CE00E94060260E080E00E946C
S11304F0E40184E191E00E94F6018AE291E00E9425
S1130500F6018EE391E00E94F60189E391E00E94F6
S1130510F6018FE491E00E94F60185B5897F85BDDF
S113052085B5816085BDEEE6F0E0808181608083E1
S1130530E1E8F0E080818C7F808380818460808327
S1130540EFE6F0E080818E7F8083E1EBF0E0808154
S113055087608083E0E7F0E080818E7F80837894F9
S113056087E690E00E94D206FFCF1F920F920FB64B
S11305700F9211242F933F934F935F936F937F9325
S11305808F939F93AF93BF93EF93FF938091A202B6
S11305909091A302A091A402B091A5020097A10595
S11305A0B10509F454C00196A11DB11D8093A202A6
S11305B09093A302A093A402B093A5028031974222
S11305C0A105B10509F043C01092A2021092A30242
S11305D01092A4021092A5021092A102E0E0F1E0B0
S11305E0108211821282138263E085E290E00E94FD
S11305F07E000E94EE018CE591E00E94F60181E705
S113060091E00E94F6018FEF97EA21E68150904035
S11306102040E1F700C000000E94EE0184E191E077
S11306200E94F6018AE291E00E94F6018EE391E0D5
S11306300E94F60189E391E00E94F6018FE491E0C3
S11306400E94F60163E085E290E00E9471000E943E
S1130650DA0091E02091A102211190E0992309F49C
S11306603FC091E08C3009F490E09923C9F160E037
S113067080E00E94E40184E191E00E94F6018AE2B4
S113068091E00E94F6018EE391E00E94F60189E375
S113069091E00E94F6018CE791E00E94F6010E942D
S11306A0DA00809300010E94DA008C30E1F7809137
S11306B0A1028F5F8093A1028091A2029091A30274
S11306C0A091A402B091A5020196A11DB11D809331
S11306D0A2029093A302A093A402B093A502A1C086
S11306E00E94DA0091E02091A102213009F090E00B
S11306F0992361F191E08C3009F490E0992331F170
S113070060E080E00E94E40184E191E00E94F6014F
S11307108AE291E00E94F6018EE391E00E94F601E4
S113072089E391E00E94F60189E891E00E94F601D4
S11307300E94DA00809301010E94DA008C30E1F714
S11307408091A1028F5F8093A1026BC00E94DA00A6
S113075091E02091A102223009F090E0992361F107
S113076091E08C3009F490E0992331F160E080E06D
S11307700E94E40184E191E00E94F6018AE291E0A2
S11307800E94F6018EE391E00E94F60189E391E074
S11307900E94F60186E991E00E94F6010E94DA00C7
S11307A0809302010E94DA008C30E1F78091A1026B
S11307B08F5F8093A10235C00E94DA0091E02091FE
S11307C0A102233009F090E0992359F191E08C3093
S11307D009F490E0992329F160E080E00E94E401AB
S11307E084E191E00E94F6018AE291E00E94F60120
S11307F08EE391E00E94F60189E391E00E94F60104
S113080083EA91E00E94F6010E94DA0080930301DA
S11308100E94DA008C30E1F78091A1028F5F80930F
S1130820A1028091A102843009F026C11092A10294
S1130830E0E0F1E0408131812281538191E08091B7
S11308401001841390E081E060911101631380E052
S1130850982381E060911201621380E0892319F1E9
S113086081E090911301951380E08823E1F0809159
S1130870A0028F5F8093A0021092A2021092A302A2
S11308801092A4021092A5020E94EE0180EB91E066
S11308900E94F60183EC91E00E94000781EE91E052
S11308A00E940007E9C091E080910C01841390E05C
S11308B081E060910D01631380E0982381E06091F1
S11308C00E01621380E0892319F181E090910F01F8
S11308D0951380E08823E1F08091A0028F5F8093DC
S11308E0A0021092A2021092A3021092A4021092EB
S11308F0A5020E94EE0184EE91E00E94F60186EFCB
S113090091E00E94000781EE91E00E940007B4C0CC
S113091091E080910801841390E081E060910901E5
S1130920631380E0982381E060910A01621380E000
S1130930892319F181E090910B01951380E08823BC
S1130940E1F08091A0028F5F8093A0021092A20236
S11309501092A3021092A4021092A5020E94EE012A
S113096083E192E00E94F60186E292E00E94000791
S113097081EE91E00E9400077FC091E08091040124
S1130980841390E081E040910501431380E09823B3
S113099081E030910601321380E0892319F181E06E
S11309A090910701951380E08823E1F08091A002E3
S11309B08F5F8093A0021092A2021092A302109261
S11309C0A4021092A5020E94EE0184E492E00E9427
S11309D0F60185E592E00E94000781EE91E00E9415
S11309E000074AC01092A2021092A3021092A4021D
S11309F01092A502E0E0F1E01082118212821382CB
S1130A0080919F028F5F80939F0263E085E290E074
S1130A100E947E0080919F02833048F50E94EE017F
S1130A2081E792E00E94F60181E791E00E94F601DD
S1130A308FEF97EA21E6815090402040E1F700C013
S1130A4000000E94EE0184E191E00E94F6018AE236
S1130A5091E00E94F6018EE391E00E94F60189E3A1
S1130A6091E00E94F6018FE491E00E94F60163E0B8
S1130A7085E290E00E9471008091A002813071F4BF
S1130A801092A00210929F02EEE6F0E080818E7F29
S1130A908083EFE6F0E080818160808380919F0213
S1130AA08330C1F410929F021092A0020E94EE01C2
S1130AB081E792E00E94F60186E892E00E94F60146
S1130AC0EEE6F0E080818E7F8083E0E7F0E08081D5
S1130AD081608083FF91EF91BF91AF919F918F913E
S1130AE07F916F915F914F913F912F910F900FBE26
S1130AF00F901F9018951F920F920FB60F9211240A
S1130B002F933F934F935F936F937F938F939F9311
S1130B10AF93BF93EF93FF9380919E0281110FC017
S1130B2065E085E290E00E94710064E085E290E077
S1130B300E947E0062E085E290E00E947E00809147
S1130B409E028530A1F510929E0265E085E290E058
S1130B500E947E0064E085E290E00E94710062E001
S1130B6085E290E00E947100EFE6F0E080818E7FE4
S1130B708083EEE6F0E08081816080830E94EE0154
S1130B8084E191E00E94F6018AE291E00E94F6017C
S1130B908EE391E00E94F60189E391E00E94F60160
S1130BA08FE491E00E94F6018FEF80939E02809182
S1130BB09E028F5F80939E02FF91EF91BF91AF9150
S1130BC09F918F917F916F915F914F913F912F9161
S1130BD00F900FBE0F901F9018951F920F920FB693
S1130BE00F9211242F933F934F935F936F937F93AF
S1130BF08F939F93AF93BF93EF93FF9380919C0246
S1130C0090919D0221E0009709F020E031E08E33BD
S1130C10910509F030E0232B31E08C37910509F080
S1130C2030E0322B21E08A3B910509F020E0232BB0
S1130C3039F421E0883F910509F020E0222351F0A6
S1130C4063E085E290E00E948A0062E085E290E041
S1130C500E948A0080919C0290919D028833914069
S1130C6079F510929D0210929C0263E085E290E077
S1130C700E947100E0E7F0E080818E7F8083EEE6E1
S1130C80F0E08081816080830E94EE0184E191E044
S1130C900E94F6018AE291E00E94F6018EE391E05F
S1130CA00E94F60189E391E00E94F6018FE491E04D
S1130CB00E94F6018FEF9FEF90939D0280939C0218
S1130CC080919C0290919D02019690939D02809345
S1130CD09C02FF91EF91BF91AF919F918F917F9172
S1130CE06F915F914F913F912F910F900FBE0F9095
S1130CF01F9018951F920F920FB60F9211242F93E5
S1130D008F939F93EF93FF938091C0002091C6002F
S1130D108C71E091A802EF5FEF739091A702E9173D
S1130D2039F0E093A802F0E0E555FD4F208301C0BF
S1130D3082E09091A602892B8093A602FF91EF9105
S1130D409F918F912F910F900FBE0F901F90189528
S1130D501F920F920FB60F9211248F939F93EF93CC
S1130D60FF939091AA028091A902981769F0E091EB
S1130D70A902EF5FEF73E093A902F0E0E551FD4FA4
S1130D8080818093C60005C0E1ECF0E080818F7D16
S1130D908083FF91EF919F918F910F900FBE0F90E1
S1130DA01F9018951092AA021092A9021092A802FC
S1130DB01092A70299231CF422E02093C00090789B
S1130DC09093C5008093C40088E98093C10086E0B5
S1130DD08093C20008952091AA022F5F2F739091EF
S1130DE0A9022917E1F3E22FF0E0E551FD4F8083DA
S1130DF02093AA02E1ECF0E0808180628083089570
S1130E00CF93DF93EC018881882331F021960E94EF
S1130E10EB0689918111FBCFDF91CF910895F8946E
S1050E20FFCFFE
S1130E222020202001030003020801000100010028
S1130E320102030457656C636F6D6520746F204370
S1130E426F7242696E2053542000202020202020FB
S1130E522020202020202020202020202000456E39
S1130E6274657220796F757220636F64653A00202D
S1130E72202020202020202D2D2D2D0054494D45A9
S1130E822049532055502E2020202020202020208D
S1130E920054727920616761696E2E00202020203F
S1130EA2202020202A2D2D2D00202020202020202B
S1130EB2202A2A2D2D0020202020202020202A2A0A
S1130EC22A2D0020202020202020202A2A2A2A001D
S1130ED257656C636F6D65204D72732E205061757A
S1130EE26C61004F50454E20444F4F52202D2055E7
S1130EF27365723A204D72732E205061756C6120B5
S1130F02000D0A0057656C636F6D65204D722E20CB
S1130F124672797A61004F50454E20444F4F522019
S1130F222D20557365723A204D722E204672797ABD
S1130F3261200057656C636F6D65204D722E2043EE
S1130F426F72746573004F50454E20444F4F5220C8
S1130F522D20557365723A204D722E20436F7274A0
S1130F626573200057656C636F6D65204D722E208A
S1130F724F6D6172004F50454E20444F4F52202D09
S1130F8220557365723A204D722E204F6D61722086
S1130F920057524F4E472050415353574F52442EFD
S1130FA220202020200054727920616761696E201C
S10F0FB2696E203520736563732E000007
S9030000FC
