S00B00006C63642E73726563E6
S11300000C9434000C9451000C9451000C94510045
S11300100C9451000C9451000C9451000C94510018
S11300200C9451000C9444010C9451000C94510014
S11300300C9451000C9451000C9451000C945100F8
S11300400C9407020C9451000C9451000C94510030
S11300500C9451000C9451000C9451000C945100D8
S11300600C9451000C94510011241FBECFEFD8E022
S1130070DEBFCDBF11E0A0E0B1E0ECE0F5E002C0EE
S113008005900D92A434B107D9F721E0A4E4B1E0BE
S113009001C01D92AA34B207E1F70E94FA000C9441
S11300A084020C940000299A85E08A95F1F70000F7
S11300B029980895CF93C82F662311F0289A01C078
S11300C02898549A559A569A579A5F985E985D98CC
S11300D05C98CC230CF45F9AC6FD5E9AC5FD5D9ACC
S11300E0C4FD5C9A0E9453005F985E985D985C988A
S11300F0C3FD5F9AC2FD5E9AC1FD5D9AC0FD5C9A24
S11301000E9453005C9A5D9A5E9A5F9A87EB9BE02B
S11301100197F1F700C00000CF91089560E00E94BC
S11301205A00089561E00E945A000895611104C0C4
S113013080580E948E00089580540E948E00089575
S113014081E00E948E00089561E00E945A000895A3
S1130150CF93DF93EC012196FC018081882329F061
S11301600E94A40089918111FBCFDF91CF91089562
S1130170CF93C82F209A559A219A549A559A569AF1
S1130180579A8FEF99EF0197F1F700C000005D9A3D
S11301905C9A0E9453008FE19EE40197F1F700C03E
S11301A000000E9453008FEF90E00197F1F700C028
S11301B000000E9453008FEF90E00197F1F700C018
S11301C000005C980E9453008FEF90E00197F1F7D4
S11301D000C0000088E20E948E0088E00E948E0029
S11301E00E94A00086E00E948E008C2F0E948E0048
S11301F0CF9108958CE00E94B80060E081E00E94F5
S1130200960080E391E00E94A80060E08BE00E94E9
S1130210960081E60E94A40061E081E00E949600BD
S113022082E60E94A40061E08BE00E94960083E6CF
S11302300E94A40080E40E948E00C0E0D1E000E3AC
S113024011E089910E949200C017D107D1F780E88C
S11302500E948E0080E00E94A400E1EBF0E0808127
S113026087608083E0E7F0E080818160808385B5EA
S11302708D7F85BD85B5856085BDEEE6F0E0808126
S1130280816080837894FFCF1F920F920FB60F92F4
S113029011242F933F934F935F936F937F938F9387
S11302A09F93AF93BF93EF93FF93CF93DF93CDB718
S11302B0DEB72697DEBFCDBF80E390E39A838983C0
S11302C08091490161E08F5F0E949600809148010E
S11302D00E94A400809148018F5F863018F48093B7
S11302E048017CC010924801809149018F5F8A3097
S11302F018F48093490161C010924901809147012B
S11303008F5F8C3318F4809347012CC010924701FF
S1130310809146018F5F8C3318F48093460102C0AC
S11303201092460160E081E00E94960080914601AF
S11303308A3018F480E30E94A400809146014AE0C8
S1130340BE016F5F7F4F90E00E944F02CE01019685
S11303500E94A80060E08BE00E9496008EE391E08A
S11303600E94A80060E084E00E949600809147010A
S11303708A3018F480E30E94A400809147014AE087
S1130380BE016F5F7F4F90E00E944F02CE01019645
S11303900E94A80060E08BE00E94960080914701D3
S11303A04AE0BE016D5F7F4F889FC00111240E9407
S11303B04F02CE0103960E94A80060E087E00E94ED
S11303C09600809149014AE0BE016F5F7F4F90E043
S11303D00E944F02CE0101960E94A80026960FB6F5
S11303E0F894DEBF0FBECDBFDF91CF91FF91EF91A7
S11303F0BF91AF919F918F917F916F915F914F9139
S11304003F912F910F900FBE0F901F9018951F9240
S11304100F920FB60F9211242F933F934F935F9334
S11304206F937F938F939F93AF93BF93EF93FF93B8
S11304308091450161E08F5F0E94960080914401A4
S11304400E94A400809144018F5F863018F4809349
S1130450440114C010924401809145018F5F8A3099
S113046018F4809345010AC01092450161E081E0CF
S11304700E94960088E391E00E94A800FF91EF910A
S1130480BF91AF919F918F917F916F915F914F91A8
S11304903F912F910F900FBE0F901F901895BB277F
S11304A04A3031F4992322F4BDE2909581959F4F0F
S11304B00C945B02BB27FB015527AA27880F991FC1
S11304C0AA1FA41710F0A41B83955051B9F7A05D7F
S11304D0AA3308F0A95DA193009779F7B111B193FC
S11304E01192CB010C947402DC01FC01672F719111
S11304F07723E1F7329704C07C916D937083629106
S10F0500AE17BF07C8F30895F894FFCFAE
S113050C000000000000000010101010101010105B
S113051C18181818181818181C1C1C1C1C1C1C1C2B
S113052C1E1E1E1E1E1E1E1E1F1F1F1F1F1F1F1FD3
S113053C30303A30302E3000202020202020202053
S107054C2020000067
S9030000FC
