S01700004763634170706C69636174696F6E312E737265635B
S11300000C9434000C943E000C943E000C943E007E
S11300100C943E000C943E000C943E000C943E0064
S11300200C943E000C943E000C943E000C943E0054
S11300300C943E000C943E000C943E000C943E0044
S11300400C943E000C943E000C943E000C943E0034
S11300500C943E000C943E000C943E000C943E0024
S11300600C943E000C943E0011241FBECFEFD8E048
S1130070DEBFCDBF0E9440000C94AF000C94000082
S1130080259A2D9887B18D6187B9409842984398F5
S113009044985098589A2FEF89E698E1215080406F
S11300A09040E1F700C000004899F5CF2D9A2FEF5A
S11300B089E698E1215080409040E1F700C00000BB
S11300C02D98409A2FEF89E698E121508040904086
S11300D0E1F700C000004098429A2FEF89E698E1CA
S11300E0215080409040E1F700C000004298439ABC
S11300F02FEF89E698E1215080409040E1F700C05D
S113010000004398449A2FEF89E698E121508040FB
S11301109040E1F700C000004498439A2FEF89E62D
S113012098E1215080409040E1F700C000004398DE
S1130130429A2FEF89E698E1215080409040E1F700
S113014000C000004298409A2FEF89E698E12150C0
S113015080409040E1F700C0000040989CCFF894A4
S1050160FFCFCB
S9030000FC
