S01400006D6F72736520636F64655F332E737265639D
S11300000C945A000C9464000C9464000C946400E6
S11300100C9464000C9464000C9464000C946400CC
S11300200C9464000C9464000C9464000C946400BC
S11300300C9464000C9464000C9464000C946400AC
S11300400C9464000C9464000C9464000C9464009C
S11300500C9464000C9464000C9464000C9464008C
S11300600C9464000C9464000C9464000C9464007C
S11300700C9464000C9464000C9464000C9464006C
S11300800C9464000C9464000C9464000C9464005C
S11300900C9464000C9464000C9464000C9464004C
S11300A00C9464000C9464000C9464000C9464003C
S11300B00C94640011241FBECFEFD8E0DEBFCDBF87
S11300C00E948B000C9407010C940000429A2FEFBD
S11300D08BE792E9215080409040E1F700C0000096
S11300E042980895429A2FEF83E294EF2150804082
S11300F09040E1F700C0000042980895429A2AEA2D
S113010034ED8CE191E02150304080409040D9F7AB
S11301100000429808953A9A42980E9472002FEF84
S113012083ED90E3215080409040E1F700C000004F
S11301300E9466002FEF83ED90E3215080409040B1
S1130140E1F700C000000E9466002FEF83ED90E30A
S1130150215080409040E1F700C000000E947E00E2
S11301602FEF83ED90E3215080409040E1F700C0F1
S113017000000E9466002FEF83ED90E32150804041
S11301809040E1F700C000000E947E002FEF83ED55
S113019090E3215080409040E1F700C000000E94AD
S11301A066002FEF83ED90E3215080409040E1F70B
S11301B000C000000E9466002FEF83ED90E3215001
S11301C080409040E1F700C000000E9472002FEFD1
S11301D083ED90E3215080409040E1F700C000009F
S11301E00E9472002FEF83ED90E3215080409040F5
S11301F0E1F700C000000E9472002FEF83ED90E34E
S1130200215080409040E1F700C0000086CFF89470
S1050210FFCF1A
S9030000FC
