S00E00006C61622030322E7372656365
S11300000C9434000C943E000C943E000C943E007E
S11300100C943E000C943E000C943E000C943E0064
S11300200C943E000C943E000C943E000C943E0054
S11300300C943E000C943E000C943E000C943E0044
S11300400C943E000C943E000C943E000C943E0034
S11300500C943E000C943E000C943E000C943E0024
S11300600C943E000C943E0011241FBECFEFD8E048
S1130070DEBFCDBF0E9440000C945A000C940000D7
S1130080259A2D98389A409A5098589A20E291E0EF
S11300903FEF49E688E1315040408040E1F700C03D
S11300A000004899F5CF85B1822785B988B18927A1
S10B00B088B9EECFF894FFCFEC
S9030000FC
