S01700004763634170706C69636174696F6E312E737265635B
S11300000C9434000C943E000C943E000C943E007E
S11300100C943E000C943E000C943E000C943E0064
S11300200C943E000C943E000C943E000C943E0054
S11300300C943E000C943E000C943E000C943E0044
S11300400C943E000C943E000C943E000C943E0034
S11300500C943E000C943E000C943E000C943E0024
S11300600C943E000C943E0011241FBECFEFD8E048
S1130070DEBFCDBF0E9440000C94C4000C9400006D
S1130080259A2D9887B18D6187B9409A429A439AEF
S1130090449A5098589A50E231E024E098E040E1C4
S11300A06FEF73EC89E0615070408040E1F700C06D
S11300B00000489BF5CF85B1852785B96FEF73ECB8
S11300C089E0615070408040E1F700C000002D9845
S11300D088B1832788B96FEF73EC89E06150704071
S11300E08040E1F700C00000409A88B1822788B9B7
S11300F06FEF73EC89E0615070408040E1F700C01D
S11301000000429A88B1892788B96FEF73EC89E0BF
S1130110615070408040E1F700C00000439A88B10C
S1130120842788B96FEF73EC89E061507040804098
S1130130E1F700C00000449A88B1892788B96FEFBD
S113014073EC89E0615070408040E1F700C000002A
S1130150439A88B1822788B96FEF73EC89E06150C4
S113016070408040E1F700C00000429A88B18327C4
S113017088B96FEF73EC89E0615070408040E1F71B
S10F018000C00000409A8CCFF894FFCF20
S9030000FC
